{
  "contractName": "BasicContract",
  "abi": [
    {
      "anonymous": false,
      "inputs": [
        {
          "indexed": true,
          "internalType": "address",
          "name": "_from",
          "type": "address"
        },
        {
          "indexed": false,
          "internalType": "uint256",
          "name": "_value",
          "type": "uint256"
        }
      ],
      "name": "Set",
      "type": "event"
    },
    {
      "constant": false,
      "inputs": [
        {
          "internalType": "string",
          "name": "_name",
          "type": "string"
        },
        {
          "internalType": "uint256",
          "name": "_age",
          "type": "uint256"
        }
      ],
      "name": "setData",
      "outputs": [],
      "payable": false,
      "stateMutability": "nonpayable",
      "type": "function"
    },
    {
      "constant": true,
      "inputs": [],
      "name": "getData",
      "outputs": [
        {
          "internalType": "string",
          "name": "",
          "type": "string"
        },
        {
          "internalType": "uint256",
          "name": "",
          "type": "uint256"
        }
      ],
      "payable": false,
      "stateMutability": "view",
      "type": "function"
    }
  ],
  "bytecode": "0x608060405234801561001057600080fd5b50610382806100206000396000f3fe608060405234801561001057600080fd5b50600436106100365760003560e01c80633bc5de301461003b578063af22068e146100c5575b600080fd5b61004361018a565b6040518080602001838152602001828103825284818151815260200191508051906020019080838360005b8381101561008957808201518184015260208101905061006e565b50505050905090810190601f1680156100b65780820380516001836020036101000a031916815260200191505b50935050505060405180910390f35b610188600480360360408110156100db57600080fd5b81019080803590602001906401000000008111156100f857600080fd5b82018360208201111561010a57600080fd5b8035906020019184600183028401116401000000008311171561012c57600080fd5b91908080601f016020809104026020016040519081016040528093929190818152602001838380828437600081840152601f19601f82011690508083019250505050505050919291929080359060200190929190505050610236565b005b6060600080600154818054600181600116156101000203166002900480601f0160208091040260200160405190810160405280929190818152602001828054600181600116156101000203166002900480156102275780601f106101fc57610100808354040283529160200191610227565b820191906000526020600020905b81548152906001019060200180831161020a57829003601f168201915b50505050509150915091509091565b816000908051906020019061024c9291906102a8565b50806001819055503373ffffffffffffffffffffffffffffffffffffffff167ffd28ec3ec2555238d8ad6f9faf3e4cd10e574ce7e7ef28b73caa53f9512f65b96001546040518082815260200191505060405180910390a25050565b828054600181600116156101000203166002900490600052602060002090601f016020900481019282601f106102e957805160ff1916838001178555610317565b82800160010185558215610317579182015b828111156103165782518255916020019190600101906102fb565b5b5090506103249190610328565b5090565b61034a91905b8082111561034657600081600090555060010161032e565b5090565b9056fea265627a7a7231582042df5851868dd686edd2e0dcc50506d5df82d3315bfec2289c1f900b990cc3a864736f6c63430005100032",
  "source": "pragma solidity ^0.5.16;\r\n\r\ncontract BasicContract {\r\n    string name;\r\n    uint256 age;\r\n\r\n    event Set(address indexed _from, uint256 _value);\r\n\r\n    function setData(string memory _name, uint256 _age) public {\r\n        name = _name;\r\n        age = _age;\r\n        emit Set(msg.sender, age);\r\n    }\r\n\r\n    function getData() public view returns (string memory, uint256) {\r\n        return (name, age);\r\n    }\r\n}\r\n",
  "sourcePath": "C:/codigo/ether/web3_demo/contracts/BasicContract.sol",
  "compiler": {
    "name": "solc",
    "version": "0.5.16+commit.9c3226ce.Emscripten.clang"
  },
  "schemaVersion": "3.2.4",
  "updatedAt": "2021-01-06T16:03:19.013Z",
  "networkType": "ethereum",
  "devdoc": {
    "methods": {}
  },
  "userdoc": {
    "methods": {}
  }
}